:100000000C9451000C9479000C9479000C947900B4
:100010000C9479000C9479000C9479000C9479007C
:100020000C9479000C9479000C9479000C9479006C
:100030000C9479000C9479000C949F0D0C94500E44
:100040000C9479000C9479000C9479000C9479004C
:100050000C9479000C9479000C9479000C9479003C
:100060000C9479000C9479000C9479000C9479002C
:100070000C9479000C9479000C9479000C9479001C
:100080000C9479000C9479000C9479000C9479000C
:100090000C943B0D0C940D0D0C94E70C0C94790012
:1000A000100F11241FBECFEFCDBFDFE3DEBF2AE26A
:1000B000A4E0B8E201C01D92A931B207E1F718E24D
:1000C000A0E0B8E2EDE0FFE202C005900D92A4309E
:1000D000B107D9F710E0C1E5D0E004C02197FE01D7
:1000E0000E940F17C035D107C9F70E948D0F0C94DD
:1000F00015170C940000AF92BF92CF92DF92EF924F
:10010000FF920F931F93CF93DF936C017B018B01C1
:10011000040F151FEB015E01AE18BF08C017D10711
:1001200059F06991D601ED91FC910190F081E02D9B
:10013000C6010995892B79F7C501DF91CF911F91F0
:100140000F91FF90EF90DF90CF90BF90AF90089508
:10015000FC0154894589252F30E0842F90E0821BD3
:10016000930B541710F0CF96089501970895FC0152
:1001700092898389981761F0A389AE0FBF2FB11DB3
:1001800059968C9193899F5F9F73938B90E008950C
:100190008FEF9FEF0895FC0192898389981731F0C2
:1001A0008389E80FF11D818D90E008958FEF9FEF17
:1001B0000895FC0192892389892F90E0805C9F4FEC
:1001C000821B91098F73992708958DE399E20E940C
:1001D000D90021E0892B09F420E0822F0895CF93E4
:1001E000DF93EC01E881F9810284F385E02D099524
:1001F000EC85FD8586818F738683EC85FD85858101
:100200008F7585838B898A8B198ADF91CF910895A9
:10021000CF93DF93FC0194898589C485D585981394
:1002200006C08D818F7D8D83DF91CF910895A58943
:10023000AE0FBF2FB11DA75ABF4F2C91858990E0FB
:1002400001968F739927858B80E48C83A485B5856F
:1002500012962C93948985899813E6CFA485B58549
:1002600015968C9115978F7D15968C938789882389
:10027000D9F2808D80931301178AD6CFDC011C96AA
:10028000ED91FC910FB607FE03C0258125FD04C04A
:10029000248125FD0C9408010895EF92FF920F939D
:1002A0001F93CF93DF93EC0181E0898B9C898D892B
:1002B00098131CC0AC85BD8514968C91149785FF4E
:1002C00015C012966C93AC85BD8580E414968C9312
:1002D000EC85FD8585818F7D858381E090E0DF91D0
:1002E000CF911F910F91FF90EF9008958091110190
:1002F00080FF08C080911301888F8E89809313013D
:1003000081E08F8BF62E0C8910E00F5F1F4F0F736B
:100310001127E02E8D898E1104C0CE010E943E016E
:10032000F9CFEC89EC0FFD2FF11DE75AFF4FF0825A
:100330000C8BEC85FD8585818062CECF682F8DE3A7
:1003400099E20C944D01CF93DF93FC012189222384
:10035000C9F0EC018091110180FF08C08091130168
:10036000808F86898093130181E0878BEC85FD85E2
:10037000858185FD03C0848186FD04C0CE010E9475
:100380003E01F4CFDF91CF91089580E090E0892B7A
:1003900029F00E94E50081110E94000080E090E0B9
:1003A000892B49F080E090E0892B29F00E94000021
:1003B00081110C940000089581E00895CF93DF939C
:1003C00090E0FC01E458F14920812F3F71F0FC01DD
:1003D000EE59F149A08130E2A39FD0011124BC5F06
:1003E0006130710529F411962C93DF91CF91089516
:1003F000885B9149EC01E881EF3F89F0CD0140969F
:10040000E80FF92FF11D9FB7F89412962C93808175
:100410006230710539F4886080839FBFE6CFF0E0D9
:10042000E0E0F1CF877FF8CF282F30E0F901E25DDF
:10043000F149E081EE2309F1E13021F0F0F0E630FE
:1004400098F008954091010A285B3149F901208113
:100450002C5F81E090E001C0880F2A95EAF7809533
:1004600084238093010A089580E1E89FF00111241C
:10047000E05AF54F81818F7E81830895FF920F931B
:100480001F93CF93DF938B32D8F4082F10E0F8013D
:10049000E458F149F0809FEFF91691F0EB010E94CA
:1004A0001402F801EE59F149E08180E2E89FF00181
:1004B0001124FC5F80818F2179F0209739F4F68236
:1004C000DF91CF911F910F91FF900895229711F422
:1004D000F782F6CFF582F4CFD801A85BB1498C91B1
:1004E000309771F08F3F61F07096E80FF11D9FB764
:1004F000F8948081CD2B39F4877F80839FBFE0CF34
:10050000F0E0E0E0F4CF8860F8CFAF92BF92CF92F6
:10051000DF92EF92FF920F931F93CF93DF9390910F
:10052000F4299F3FA9F400008093C4088091C30878
:1005300087FFFCCFC091C4088C2FDF91CF911F9112
:100540000F91FF90EF90DF90CF90BF90AF90089504
:10055000C0E097E0E92EF12CCC24C394D12C082FD5
:1005600010E0CC0F70E060E08091F4290E943E0220
:10057000B6010E2C02C0660F771F0A94E2F76023C3
:1005800071238091F2290E943E0261E070E0809127
:10059000F4290E943E028091F3298B32B8F4A82EF0
:1005A000B12CF501E458F149D081DF3F79F00E9488
:1005B0001402F501EE59F149E08180E2E89FF00173
:1005C0001124FC5F8085D82309F0C16081E0E81A1E
:1005D000F10838F6B1CF8B3210F40C94DE01089597
:1005E000CF92DF92EF92FF920F931F93CF93DF93FF
:1005F000EC016A017B01022F8989882339F0E881A7
:10060000F9810088F189E02DCE01099598898091C2
:10061000E205892B8093E2051FB7F89460E070E251
:1006200081EA97E0A70196010E947A1569017A0193
:100630008FEFC81AD80AE80AF80AF694E794D79414
:10064000C794EC85FD8586818D7F8683EC85FD854D
:1006500086818683198AA09123110A2E000CBB0B78
:10066000A70196010E94BB1520E034E040E050E075
:100670000E949C15EC85FD85C20ED31EE41EF51E5E
:10068000C086D186EC85FD850783EC85FD85868156
:10069000806C8683EC85FD858581806885838E8569
:1006A00062E070E00E94EB028F8561E070E00E94E2
:1006B0003E028F8561E070E00E94EB021FBFDF9178
:1006C000CF911F910F91FF90EF90DF90CF90089501
:1006D000CF93DF938FB7F89420913129309132294D
:1006E0004091332950913429E091BA0A9091B60A89
:1006F00090FF06C02F5F3F4F4F4F5F4FE091BA0A08
:100700008FBFA0913B29B0913C29C0913929D0914C
:100710003A290E944514EC9F9001ED9F300D112461
:10072000620F731F811D911DDF91CF9108958F92EC
:100730009F92AF92BF92CF92DF92EF92FF924B01C6
:100740005C010E9468036B017C01A8EEB3E0A50187
:1007500094010E944514C60ED71EE81EF91EC61647
:10076000D706E806F90618F40E946803F8CF0E943D
:1007700068036C157D058E059F05C8F3FF90EF900B
:10078000DF90CF90BF90AF909F908F9008950F9380
:1007900091E090932A291092292960932729709338
:1007A0002829409326292093252910922429109244
:1007B000232900932229880F8093212923E030E008
:1007C00044E050E080912629882341F020931F299E
:1007D00030932029809121298E7F0BC0809125297B
:1007E000882351F040931F2950932029809121297B
:1007F00081608093A70808C080912629811104C0D8
:1008000080912529882311F3809129298823E1F3F8
:10081000809129298330B1F280912529882321F004
:10082000809123290F91089580912929823031F0F8
:10083000853031F0813031F480E0F4CF81E0F2CFC7
:1008400083E0F0CF84E0EECFE0EAF8E091859066B7
:10085000918722E030E020931F2930932029809354
:10086000112910921029089581E080931029109287
:10087000112993E09093AA089091AB0891FF10C0C2
:1008800010921D29E0910E29F0910F29099580936E
:100890001C2985E090E080931F29909320290895DA
:1008A00010921E2980931B2986E090E0F4CF60937C
:1008B0000C2970930D29089560930A2970930B29D0
:1008C0000895E0910C29F0910D29309741F0109294
:1008D000092910920829099580910829089580E036
:1008E0000895E0910A29F0910B29309759F0309141
:1008F000072920910629321728F0109207298093A2
:100900000629099408950895E09107298091062900
:10091000E81730F4F0E0EA57F74D808190E0089551
:100920008FEF9FEF089590910729809106292FEF6F
:100930003FEF981748F4E92FF0E0EA57F74D208190
:1009400030E09F5F90930729C9010895809106299F
:1009500090910729891B990B0895CF92DF92EF920E
:10096000FF920F931F93CF93DF937C018A01EB01DA
:100970006B01C40ED51ECC15DD0551F06991D70170
:10098000ED91FC910190F081E02DC7010995F3CF25
:10099000C801DF91CF911F910F91FF90EF90DF90F1
:1009A000CF9008952091082927FF08C021E030E06A
:1009B000FC012283338390E080E00895809109292F
:1009C000E82FF0E0EA5FF74D60838F5F809309299D
:1009D0008093082981E090E00895DC01ED91FC917D
:1009E0000688F789E02D61E009940F9380911F2913
:1009F000909120290197A1F480912A29811112C098
:100A0000062F20E04091082966E078E280910528D1
:100A10000E94C70310920929109208290F91089586
:100A200080E0F8CF81E0F6CF609305281092092985
:100A3000109208290895DC01ED91FC91028CF38D50
:100A4000E02D21E00994DC01ED91FC91028CF38D05
:100A5000E02D21E009940F9386E898E28093122913
:100A60009093132980911F29909120290197C1F417
:100A700080912A29811116C0FA014138510510F0E0
:100A8000E0E8F0E0022F862F2E2F40E070E060E0DB
:100A90000E94C70310920729809306290F91089599
:100AA00080E0F8CF81E0F6CF8F929F92AF92BF9215
:100AB000CF92DF92EF92FF92CF93DF9340348DE09D
:100AC000580783E06807710508F44EC0411585E3B7
:100AD00058078CE06807710508F43FC040385F4450
:100AE0006241710508F040C0C8E7D0E020E432E47C
:100AF0004FE050E08090002890900128A0900228BC
:100B0000B0900328C501B4010E947A1569017A01E9
:100B10008AE0C81AD108E108F108DE01A5019401B4
:100B20000E94451420E03AEC4AE95BE30E947A1502
:100B3000C21AD30AE40AF50AF694E794D794C79444
:100B4000C092A608DF91CF91FF90EF90DF90CF90F9
:100B5000BF90AF909F908F900895CCE2D1E020E8B5
:100B60003AE146E050E0C6CFC8EED3E020EA36E8EE
:100B700041E050E0BFCFE0EAF8E01382168281E066
:100B800085831486118610921F29109220290895BA
:100B9000109207291092062910920929109208290B
:100BA00080911F2990912029892BD9F482E090E02F
:100BB00080931F299093202910921E2910921D299D
:100BC00010921029109211291092042810921B29BA
:100BD000660F6093AC0881EE8093A90881E0809352
:100BE000A30881E694E080930E2990930F2986E074
:100BF00098E2809314299093152981E794E08093DB
:100C0000192990931A2986E898E2809316299093DF
:100C1000172980E88093182908958F929F92AF92A8
:100C2000BF92CF92DF92EF92FF921092072910921B
:100C30000629109209291092082980911F29909164
:100C40002029892B09F04FC062E070E086E10E9404
:100C5000DE0162E070E087E10E94DE018091E30541
:100C60008093E30581E090E080931F2990932029F1
:100C7000109223291092242910922A2910922929AE
:100C800081EC8093A3088090002890900128A09088
:100C90000228B0900328C501B40120EA36E841E0FB
:100CA00050E00E947A1569017A018AE0C81AD108D9
:100CB000E108F108A8EEB3E0A50194010E944514F3
:100CC00020E03AEC4AE95BE30E947A15C21AD30AA3
:100CD000E40AF50AF694E794D794C794C092A6085C
:100CE00081E08093A508FF90EF90DF90CF90BF90B8
:100CF000AF909F908F9008958F929F92AF92BF92E6
:100D0000CF92DF92EF92FF920F931F93CF93DF93D7
:100D1000FC018681882319F081FF0EC07894DF9151
:100D2000CF911F910F91FF90EF90DF90CF90BF90E8
:100D3000AF909F908F90089580FFF1CF8084918431
:100D4000A284B384C12CD12C760110E09401A501BA
:100D5000B601C701A0E00E94031799F1217030E0AD
:100D600040E050E060E070E080E090E00E94031717
:100D7000D9F0D0E0C0E0103370F4C12FC695C6950D
:100D8000C69580E2C89FE0011124C05FDB4F812F30
:100D90008770C80FD11DCF01810F911DDC015096C6
:100DA0008C919881892B88839401A501B601C70194
:100DB00001E00E94D61649015A016B017C011F5FB8
:100DC000C5CF84849584A684B784C12CD12C7601A8
:100DD00010E29401A501B601C701A0E00E9403172B
:100DE00009F49DCF217030E040E050E060E070E019
:100DF00080E090E00E940317D9F0D0E0C0E010330B
:100E000070F4C12FC695C695C695B0E2CB9FE001A0
:100E10001124C05FDB4F812F8770C80FD11DCF0118
:100E2000810F911DDC0150968C919881892B8883CC
:100E30009401A501B601C70101E00E94D61649013F
:100E40005A016B017C011F5FC4CF8F929F92AF92BA
:100E5000BF92CF92DF92EF92FF920F931F93CF93A7
:100E6000DF93FC01C62F172F8681882319F081FF9D
:100E700012C0F894C093C0081093C108DF91CF91BD
:100E80001F910F91FF90EF90DF90CF90BF90AF90A8
:100E90009F908F90089580FFEDCF80849184A284ED
:100EA000B384C12CD12C7601D0E09401A501B60108
:100EB000C701A0E00E940317B1F1217030E040E0CB
:100EC00050E060E070E080E090E00E940317F1F0F5
:100ED00090E080E0D03370F48D2F869586958695CE
:100EE00020E2829FC0011124805F9B4F2D2F27702D
:100EF000820F911DDC014C919F012D0F311DD901F5
:100F000050964C93DC012C91287F2C939401A501E1
:100F1000B601C70101E00E94D61649015A016B01D2
:100F20007C01DF5FC2CF84849584A684B784C12C02
:100F3000D12C7601D0E29401A501B601C701A0E051
:100F40000E94031709F496CF217030E040E050E092
:100F500060E070E080E090E00E940317F1F090E024
:100F600080E0D03370F48D2F869586958695B0E21B
:100F70008B9FC0011124805F9B4F2D2F2770820F04
:100F8000911DDC014C919F012D0F311DD90150960F
:100F90004C93DC012C91287F2C939401A501B60180
:100FA000C70101E00E94D61649015A016B017C017C
:100FB000DF5FC1CFCF93C82F80E390E00E949E01F6
:100FC0008C2FCC0F990B0E949E018AE090E0CF916C
:100FD0000C949E01CF92DF92EF92FF921F93CF93DA
:100FE000DF9300D000D0CDB7DEB7182F6A017B01A8
:100FF00080E390E00E949E01812F110F990B0E94C7
:101000009E01C982DA82EB82FC8244E050E0BE019C
:101010006F5F7F4F8DE399E20E947B008AE090E052
:101020000E949E012496CDBFDEBFDF91CF911F911C
:10103000FF90EF90DF90CF900895DC01ED91FC914F
:101040000684F785E02D23E030E00994CF93DF9309
:10105000FC0101900020E9F73197AF01481B590BC3
:10106000BC018DE399E20E947B00EC0142E050E07C
:1010700066ED7EE68DE399E20E947B008C0F9D1F5A
:10108000DF91CF910895FC014091002850910128F3
:10109000609102287091032876956795579547953A
:1010A00090E0413281EA580787E06807710540F017
:1010B00076956795579547959F5F963091F797E09E
:1010C00084E08183892F8095282F217030E084E08F
:1010D000220F331F8A95E1F79162922B9083089536
:1010E000EF92FF920F931F93CF93DF9300D0CDB772
:1010F000DEB7082F162F8091F1298F3FC9F5809117
:10110000E4299091E529DC01ED91FC910488F589B1
:10111000E02D6091E82909958091E4299091E529D5
:10112000DC01ED91FC910190F081E02D602F09959B
:101130008091E4299091E529DC01ED91FC910190E9
:10114000F081E02D612F09958091E4299091E529A6
:10115000DC01ED91FC91008CF18DE02D09950F9053
:101160000F90DF91CF911F910F91FF90EF90089515
:101170008091F4298F3F69F4E090E629F090E72907
:10118000CE0101960E94430869817A81C7010E94BD
:10119000250770E060E08091F1290E943E02802FD7
:1011A0008F770E948502812F0E94850261E070E0A6
:1011B0008091F1290E943E028091F4298F3F79F6B7
:1011C0008091E6299091E7290E947C06C8CFEF9292
:1011D000FF921F93CF93DF9300D0CDB7DEB7182FC8
:1011E0008091F1298F3F09F044C08091E4299091CA
:1011F000E529DC01ED91FC910488F589E02D6091F1
:10120000E82909958091E4299091E529DC01ED9187
:10121000FC910190F081E02D612F09958091E429E6
:101220009091E529DC01ED91FC91008CF18DE02D90
:1012300009956091E82970E041E050E08091E4294F
:101240009091E5290E941B058091E4299091E52960
:10125000DC01ED91FC910680F781E02D0995182FB6
:10126000812F0F900F90DF91CF911F91FF90EF9002
:1012700008958091F4298F3F69F4E090E629F09079
:10128000E729CE0101960E94430869817A81C7014E
:101290000E94250770E060E08091F1290E943E02E3
:1012A000812F0E94850280E00E948502182F61E054
:1012B00070E08091F1290E943E028091F4298F3FD5
:1012C00079F68091E6299091E7290E947C06C8CFA3
:1012D000EF92FF920F931F93CF93DF9300D0CDB780
:1012E000DEB7182F8091F1298F3F09F055C080910A
:1012F000E4299091E529DC01ED91FC910488F589C0
:10130000E02D6091E82909958091E4299091E529E3
:10131000DC01ED91FC910190F081E02D612F0995A8
:101320008091E4299091E529DC01ED91FC91008CFC
:10133000F18DE02D09956091E82970E042E050E0E0
:101340008091E4299091E5290E941B058091E42970
:101350009091E529DC01ED91FC910680F781E02D6B
:101360000995182F8091E4299091E529DC01ED91F0
:10137000FC910680F781E02D099520E0312F89014D
:10138000082B192BC8010F900F90DF91CF911F915F
:101390000F91FF90EF9008958091F4298F3F69F4A9
:1013A000E090E629F090E729CE0101960E944308DB
:1013B00069817A81C7010E94250770E060E0809111
:1013C000F1290E943E02812F0E94850280E00E9446
:1013D0008502082F80E00E948502102F082F61E00F
:1013E00070E08091F1290E943E028091F4298F3FA4
:1013F00049F68091E6299091E7290E947C06C2CFA8
:101400000E9468099827892798270895CF93DF932A
:101410008091F1298F3F99F58091E4299091E529F8
:10142000DC01ED91FC910484F585E02D099580EDBA
:101430000E94E70890E0B0E0A0E08093E929909353
:10144000EA29A093EB29B093EC2980369105A105F8
:10145000B10509F052C166EB80EE0E9470086CE2A3
:1014600071E080E090E00E94970383EF0E94E7081C
:1014700080FF5AC064E670E080E090E0F4CF61E065
:1014800070E00E943E0261E070E08091F1290E94CC
:10149000EB028091F4298F3FB1F5C091E629D091FC
:1014A000E7298D8181110CC01E821F821886198642
:1014B0001A861B861C861D861E861F8681E08D83EC
:1014C0008091E3059C81892B8093E30561E070E0C6
:1014D00089810E94EB0261E070E08A810E94EB0248
:1014E0008091C10884608093C1088091C0088162A6
:1014F0008093C0089091E2298091E3299093C008DD
:101500008093C10894CF61E070E00E94EB0261E03B
:1015100070E08091F2290E94EB0270E060E080911F
:10152000F3290E94EB0283CF88E80E94000A80938F
:10153000F5299093F6298AE80E94000A8093F729FA
:101540009093F8298CE80E94000A8093F9299093DF
:10155000FA298EE80E94000A8093FB299093FC29C7
:1015600080E90E94000A8093FD299093FE2982E978
:101570000E94000A8093FF299093002A84E90E9428
:10158000000A8093012A9093022A86E90E94000AA9
:101590008093032A9093042A88E90E94000A80938A
:1015A000052A9093062A8AE90E94000A8093072A56
:1015B0009093082A8CE90E94000A8093092A90934C
:1015C0000A2A8EE90E94000A80930B2A90930C2A23
:1015D00081EA0E94E70880930D2A81EE0E94000AAA
:1015E00080930E2A90930F2A83EE0E94E70880933F
:1015F000102A84EE0E94E708C82F85EE0E94E708B3
:10160000B0E1CB9F900111248F70282B2093112AD9
:101610003093122A86EE0E94E708C82F85EE0E94BA
:10162000E70890E1C99FE001112490E024E095953E
:1016300087952A95E1F78C2B9D2B8093132A909305
:10164000142A87EE0E94E7088093152A8DEE809376
:10165000172A8091182A8F71806A8093182A8091A6
:10166000162A807C8093162A60E084EF0E9470081E
:101670006091182A62956695677082EF0E947008E3
:101680008091162A682F6770A0E26A9FB00111242A
:10169000282F2695269526952770B4E02B9F90013C
:1016A0001124622B87FB882780F9682B85EF0E9425
:1016B00070088091172A682F677090E2699FB001C7
:1016C0001124282F2695269526952770A4E02A9F79
:1016D00090011124622B8295869586958370682BE4
:1016E00084EF0E94700864E670E080E090E00E9461
:1016F000970381E0DF91CF91089580E0FBCF8F9237
:101700009F92AF92BF92CF92DF92EF92FF92CF93D0
:10171000DF9300D0CDB7DEB7F82E8091F1298F3F4F
:1017200009F07DC08091E4299091E529DC01ED91DB
:10173000FC910488F589E02D6091E8290995809154
:10174000E4299091E529DC01ED91FC910190F08173
:10175000E02D6F2D09958091E4299091E529DC0118
:10176000ED91FC91008CF18DE02D09956091E829B7
:1017700070E043E050E08091E4299091E5290E94D7
:101780001B058091E4299091E529DC01ED91FC9104
:101790000680F781E02D09954C01990FAA08BB0836
:1017A000BA2CA92C982C88248091E4299091E529C1
:1017B000DC01ED91FC910680F781E02D0995092E61
:1017C000000CAA0BBB0B882A992AAA2ABB2ABA2C7E
:1017D000A92C982C88248091E4299091E529DC019A
:1017E000ED91FC910680F781E02D0995092E000C02
:1017F000AA0BBB0B6C017D01C828D928EA28FB285D
:10180000C701B6010F900F90DF91CF91FF90EF903D
:10181000DF90CF90BF90AF909F908F900895809170
:10182000F4298F3F69F4C090E629D090E729CE01D2
:1018300001960E94430869817A81C6010E942507AA
:1018400070E060E08091F1290E943E028F2D0E949D
:10185000850280E00E94850290E0B0E0A0E0CC2408
:10186000D82EE92EFA2E80E00E948502C82AFE2C8E
:10187000ED2CDC2CCC2480E00E948502C82A61E09B
:1018800070E08091F1290E943E028091F4298F3FFF
:1018900009F0B6CF8091E6299091E7290E947C0655
:1018A000AFCF8F929F92AF92BF92CF92DF92EF9283
:1018B000FF920F931F938AEF0E947F0B61157105B2
:1018C00020E88207910509F47DC00091F529109167
:1018D000F62930E020E0C72ED82EE92EFF24E7FCC1
:1018E000FA94C01AD10AE20AF30A57E0959587954F
:1018F000779567955A95D1F7000F111F221F331F57
:101900004B015C01801A910AA20AB30AA501940155
:10191000A091F729B091F8290E94BB154B015C01F9
:10192000FBE0B594A79497948794FA95D1F7A70113
:101930009601C701B6010E9456159B01AC01ACE0AF
:101940005595479537952795AA95D1F7A091F929EF
:10195000B091FA290E94BB159B01AC01BEE05595E0
:10196000479537952795BA95D1F7280D391D4A1D0A
:101970005B1D2093ED293093EE294093EF2950937E
:10198000F029A5E0B0E00E94451460587F4F8F4FCA
:101990009F4F672F782F892F992787FD9A950E944F
:1019A0004C1320E030E048EC52E40E9490141F9168
:1019B0000F91FF90EF90DF90CF90BF90AF909F90EE
:1019C0008F90089560E070E080EC9FE7F0CF1F9269
:1019D0000F920FB60F9211242F933F934F935F9363
:1019E0006F937F938F939F93AF93BF93EF93FF93E7
:1019F0008DE399E20E940801FF91EF91BF91AF91B1
:101A00009F918F917F916F915F914F913F912F9116
:101A10000F900FBE0F901F9018951F920F920FB648
:101A20000F9211242F938F939F93EF93FF93E09145
:101A30004929F0914A29818181FD1BC090818091C3
:101A40004F298F5F8F7320915029821741F0E091C9
:101A50004F29F0E0E35CF64D918F80934F29FF9181
:101A6000EF919F918F912F910F900FBE0F901F902C
:101A700018958081F4CF1F920F920FB60F92112408
:101A80002F933F934F935F936F937F938F939F9386
:101A9000AF93BF9340912D2950912E2960912F290A
:101AA0007091302980912B2990912C2920913729F0
:101AB00030913829420F531F611D711D2091352926
:101AC00030913629820F931F883E23E0920730F031
:101AD000885E93404F5F5F4F6F4F7F4F80932B29FE
:101AE00090932C2940932D2950932E2960932F29D0
:101AF000709330298091312990913229A091332916
:101B0000B09134290196A11DB11D80933129909384
:101B10003229A0933329B093342981E08093B60A07
:101B2000BF91AF919F918F917F916F915F914F91F5
:101B30003F912F910F900FBE0F901F9018951F92FD
:101B40000F920FB60F9211242F933F934F935F93F1
:101B50006F937F938F939F93AF93BF93CF93EF93A5
:101B6000FF93C091AB08C2FF0AC010921E291092C9
:101B70001D2910921C2984E00E94240414C0C6FF71
:101B80002FC080911B29813051F480911E29E09152
:101B90001929F0911A2990E0099510921B29C0FF8C
:101BA00014C00E943404FF91EF91CF91BF91AF9187
:101BB0009F918F917F916F915F914F913F912F9165
:101BC0000F900FBE0F901F90189580E48093AB0884
:101BD00081E00E9424048091AB0885FFE4CFE1CF2F
:101BE000C7FF5CC0C3FF08C010921E2910921D29B8
:101BF00010921C2983E0C0CF8091A9088066809351
:101C0000A9088091AB0881FF2CC080911D298823F1
:101C100049F08091AB0884FF05C082E08093AA0858
:101C200081E0AACF90911D2980911C299817A8F4D2
:101C3000E0911D298091142990911529E80FF92F21
:101C4000F11D80818093AD0880911D298F5F809365
:101C50001D2983E08093AA08A6CF82E08093AA087A
:101C60008BCF90911E2980911829981790F480911C
:101C7000AD08E0911E292091162930911729E20F15
:101C8000F32FF11D808380911E298F5F80931E2981
:101C9000E0CF86E08093AA0882E06ECF85E06CCF2B
:101CA0001F920F920FB60F9211242F933F938F9391
:101CB0009F93EF93FF938091A508982F9C70E1F07C
:101CC0008091A50894E082FF93E090932929809366
:101CD000A50881E090E080931F299093202910921D
:101CE0002A29FF91EF919F918F913F912F910F9012
:101CF0000FBE0F901F90189586FF4EC02091262989
:101D0000909125298091A50884FF15C080912229F2
:101D1000882379F083E08093A40885E080932929C3
:101D200010922A2981E090E080931F299093202926
:101D3000D8CF81E0F0CF80912429821790F4E091F0
:101D400024298091272990912829E80FF92FF11D46
:101D500080818093A808809124298F5F8093242913
:101D6000C0CF80912329891760F484E090E08093AC
:101D70001F29909320298091212981608093A708B1
:101D8000B0CF80912229882329F083E08093A40892
:101D900081E0C4CF81E0FACF87FF40C09091232932
:101DA000809125299817D8F48091A808E0912329DB
:101DB0002091122930911329E20FF32FF11D808316
:101DC000809123298F5F80932329909125298091E9
:101DD00023298917D8F482E08093A40882CF8091C8
:101DE0002229882389F087E08093A40882E08093E9
:101DF000292910922A2981E090E080931F2990934D
:101E00002029109225296DCF85E0EECF80912229DF
:101E1000882311F087E0BACF85E0B8CF86E07ECF87
:101E200010923F291092402988EE93E0A0E0B0E0A4
:101E30008093412990934229A0934329B093442948
:101E40004AE95EE640933D2950933E2940E658E03A
:101E50004093492950934A2948E140934B2949E14D
:101E600040934C2940E440934D2910924F29109201
:101E70005029109251291092522946E24093532939
:101E800010925429109255291092D8291092D929CC
:101E90008093DA299093DB29A093DC29B093DD2984
:101EA00084EB9EE68093D6299093D7294091002811
:101EB00050910128609102287091032876956795CA
:101EC0005795479580E0413099E059079DE36907B0
:101ED000710540F076956795579547958F5F8630E9
:101EE00091F787E094E09093E329982F9095292F1C
:101EF000217030E094E0220F331F9A95E1F7816260
:101F0000822B8093E2298FEF8093F1298093F2292D
:101F10008093F3298093F4290895CF93DF93CDB76D
:101F2000DEB76B97CDBFDEBF88ED90E084BF9093A6
:101F3000610080E094E2A4EFB0E0809300289093E9
:101F40000128A0930228B09303288091020686609E
:101F50008093020680910006816080930006809144
:101F600002068F7C809302068091A0008F78809378
:101F7000A000809102068061809302061092E20523
:101F800081E08093E40583E08093010A8FEF90E085
:101F90008093260A9093270A80E890E08093380A7D
:101FA0009093390A80933A0A90933B0A80933C0AB3
:101FB00090933D0A8BE08093000A8091E505816053
:101FC0008093E5058091E50582608093E505E0E872
:101FD000FAE037E02FEF90E885E03183248795879A
:101FE00080837096E03C0AE0F007B9F780E094E067
:101FF00080933B2990933C2980913B2990913C29E7
:102000002FEF30E0B9010E94661560933929709373
:102010003A2980913B2990913C29E8EEF3E0BF01F9
:102020000E946615609337297093382980913B2967
:1020300090913C29BF010E946615809335299093A9
:1020400036292093BC0A3093BD0A8091B50A81607D
:102050008093B50A84E08093B00A8091B00A8160D1
:102060008093B00A789488EE93E0A0E0B0E080938B
:10207000412990934229A0934329B093442940E8F1
:1020800055E260E070E08DE399E20E941D0887E769
:102090008093E82986ED99E28093E4299093E529DD
:1020A0000E94060A81110BC086E78093E8290E94EE
:1020B000060A811104C089ED9EE60E9426088DE380
:1020C00099E20E94D9000397ECF08DE399E20E9417
:1020D000B700803309F0DCC28DE399E20E94B700BB
:1020E0008136C9F40E94510CAB01BC0181E60E940B
:1020F000EA078DE399E20E94B7008A3019F084E381
:102100000E94DA076AE070E080E090E00E949703A6
:102110000E94C501D4CF823609F0E1C00E94510C63
:102120008DEF0E946809B0E0A0E040E050E060EC74
:102130007FE7811510E89107A105B10509F4CDC02D
:102140008090ED299090EE29A090EF29B090F02991
:102150002CE2921A21E0A20AB1086C017D018EE006
:10216000CC0CDD1CEE1CFF1C8A95D1F78091112A46
:102170009091122A092E000CAA0BBB0B24E1880FA8
:10218000991FAA1FBB1F2A95D1F7C81AD90AEA0AB4
:10219000FB0AA091132AB091142AA50194010E9470
:1021A000BB15C61AD70AE80AF90A30E4D30EE11CB7
:1021B000F11C3FE0F594E794D794C7943A95D1F792
:1021C000A091102AB0E094010E9445142B013C011B
:1021D0004BE075946794579447944A95D1F740E83B
:1021E000540E611C711CA091152A0A2E000CBB0B09
:1021F000A5010E94BB155AE095958795779567953F
:102200005A95D1F7A30192010E9456159B01AC018A
:102210006AE055954795379527956A95D1F7405EC1
:102220005F4FA0910E2AB0910F2A0E94BB15705EDD
:102230008F4F9F4FEEE09595879577956795EA9537
:10224000D1F7A70196010E9456156B017C01FFE0B2
:102250009595879577956795FA95D1F79B01AC0190
:102260000E9456159B01AC01A7E0559547953795FF
:102270002795AA95D1F7A0910D2AB0E00E944514A8
:10228000B4E09595879577956795BA95D1F7C61A75
:10229000D70AE80AF90AF7FE03C0C12CD12C76014F
:1022A000C701B60161307105810559E1950724F038
:1022B00060E070E080E099E10CE095958795779576
:1022C00067950A95D1F70E944C1320E030E040E872
:1022D0005AE30E948713AB01BC0182E608CF833624
:1022E00009F0D2C10E94510C87EF0E947F0B6D87CD
:1022F0007E878F87988B611571058048910509F459
:10230000BAC18091ED299091EE29A091EF29B09169
:10231000F0296C017D01FF0CCC08DC2C76019C01BE
:10232000AD016C2D7C2D8C2D9C2D345F41405109CD
:1023300061097109810991092A8F332E2A013B0114
:102340004C01A22EB32E6A017B018C010E94C315A1
:10235000222E3B8B4C8B5D8B6E8B7F8B888F998F66
:102360003091FE292091FD29932F990F990B492F28
:10237000592F692F792F892F0E94C3150CE00E94D5
:10238000BB16298339874A875B876C87798B8A8B51
:102390009B8F3091002A2091FF29932F990F990B41
:1023A000A22CBB88CC88DD88EE88FF88088D198D2B
:1023B000492F592F692F792F892F0E94C31508E0C3
:1023C0000E94D416A980B984CA84DB84EC84F9887D
:1023D0000A891B8D0E94F11670588F4F9F4FE09114
:1023E000FB29F091FC295F01D12CC12CE12CF12CAF
:1023F0008701E983BA82CB82DC82ED82FE820F8381
:102400001887C12CD12CE12CF12C00E010E00E94A7
:10241000C31501E20E94D416298339874A875B8756
:102420006C87798B8B8F9A8BA0E00E94031709F43D
:1024300027C13091062A2091052A932F990F990BD5
:10244000A22CBB88CC88DD88EE88FF88088D198D8A
:10245000492F592F692F792F892F0E94C315222EBA
:102460003B8B4C8B5D8B6E8B7F8B888F998F3091E4
:10247000042A2091032A932F990F990BAA8CB32C2D
:10248000620173018401492F592F692F792F892FF8
:102490000E94C31501E10E94BB16A22CBB88CC8808
:1024A000DD88EE88FF88088D198D0E94F11659018C
:1024B0006A017B01382E192F8D859E85AF85B889DD
:1024C00024E0B595A795979587952A95D1F720E0B3
:1024D00030E040E150E0281B390B4A0B5B0BDA017E
:1024E000C90129013A01770C4408542C32019C019E
:1024F000AD01642D742D842D942D0FE10E94BB1627
:10250000722E832E942E5D87B62FA72FF82FE92FDA
:102510003091022A2091012A932F990F990B492F6C
:10252000592F692F792F892F03E20E94BB16032DA3
:102530000E94F11659016A017B018C01272D382D6B
:10254000492D5D856B2F7A2F8F2F9E2F0E94FA16B3
:10255000E5E3AE2EFCE0BF2EC12CD12CE12CF12CFA
:1025600000E010E00E94C315A980B984CA84DB840E
:10257000EC84F9880B8D1A890E941D162A8B398BE1
:102580004D87598369877A878B879C870DE00E94E6
:10259000D416922E832E742E652E562E472E382E4C
:1025A000292E30910C2A20910B2A932F990F990BE9
:1025B000A92CB82CC72CD62CE52CF42C032D122DCD
:1025C000492F592F692F792F892F0E94C3150E94F7
:1025D000C31509E10E94D416AA88B988CD84D98090
:1025E000E984FA840B851C850E94F11619012A01E1
:1025F0003B014C0130910A2A2091092A932F990F0F
:10260000990B492F592F692F792F892F0E94C315B4
:1026100003E10E94D41659016A017B018C019101EA
:10262000A201B301C4010E94F11608E00E94D41671
:1026300059016A017B01E82F192F3091082A209156
:10264000072A932F990F990B492F592F692F792F0B
:10265000892F04E00E94BB160E2F0E94F1160E94E3
:10266000021520E030E040E85BE30E948713AB01F5
:10267000BC0183E63CCD40E050E060EC7FE7F9CF61
:1026800040E050E0BA01F5CF83E30E94DA0731CD94
:1026900082E336CDE89409C097FB3EF4909580958F
:1026A000709561957F4F8F4F9F4F9923A9F0F92F18
:1026B00096E9BB279395F695879577956795B79596
:1026C000F111F8CFFAF4BB0F11F460FF1BC06F5F7C
:1026D0007F4F8F4F9F4F16C0882311F096E911C08E
:1026E000772321F09EE8872F762F05C0662371F0AF
:1026F00096E8862F70E060E02AF09A95660F771FC3
:10270000881FDAF7880F9695879597F908950E94A4
:102710009A130C940B140E94FD1338F00E940414B9
:1027200020F0952311F00C94F4130C94FA13112457
:102730000C943F140E941C1470F3959FC1F3950FE5
:1027400050E0551F629FF001729FBB27F00DB11D35
:10275000639FAA27F00DB11DAA1F649F6627B00DC5
:10276000A11D661F829F2227B00DA11D621F739FAE
:10277000B00DA11D621F839FA00D611D221F749FBC
:102780003327A00D611D231F849F600D211D822F03
:10279000762F6A2F11249F5750409AF0F1F088232A
:1027A0004AF0EE0FFF1FBB1F661F771F881F915057
:1027B0005040A9F79E3F510580F00C94F4130C94FF
:1027C0003F145F3FE4F3983ED4F386957795679581
:1027D000B795F795E7959F5FC1F7FE2B880F911D81
:1027E0009695879597F9089597F99F6780E870E027
:1027F00060E008959FEF80EC089500240A94161677
:10280000170618060906089500240A9412161306DE
:10281000140605060895092E0394000C11F488236C
:1028200052F0BB0F40F4BF2B11F460FF04C06F5F88
:102830007F4F8F4F9F4F089557FD9058440F551F5E
:1028400059F05F3F71F04795880F97FB991F61F032
:102850009F3F79F087950895121613061406551FA9
:10286000F2CF4695F1DF08C0161617061806991F15
:10287000F1CF86957105610508940895E894BB270A
:1028800066277727CB0197F908950E948114A59FA9
:10289000900DB49F900DA49F800D911D112408955B
:1028A0002F923F924F925F926F927F928F929F9260
:1028B000AF92BF92CF92DF92EF92FF920F931F934E
:1028C000CF93DF93CDB7DEB7CA1BDB0BCDBFDEBF27
:1028D00009942A88398848885F846E847D848C8432
:1028E0009B84AA84B984C884DF80EE80FD800C813B
:1028F0001B81AA81B981CE0FD11DCDBFDEBFED01F5
:102900000895A29FB001B39FC001A39F700D811DC8
:102910001124911DB29F700D811D1124911D0895E8
:102920000E94A4140C940B140E94041458F00E94EA
:10293000FD1340F029F45F3F29F00C94F41351117A
:102940000C943F140C94FA130E941C1468F39923FE
:10295000B1F3552391F3951B550BBB27AA2762179B
:102960007307840738F09F5F5F4F220F331F441FA8
:10297000AA1FA9F335D00E2E3AF0E0E832D09150DC
:102980005040E695001CCAF72BD0FE2F29D0660FC9
:10299000771F881FBB1F261737074807AB07B0E80C
:1029A00009F0BB0B802DBF01FF2793585F4F3AF012
:1029B0009E3F510578F00C94F4130C943F145F3F44
:1029C000E4F3983ED4F3869577956795B795F79598
:1029D0009F5FC9F7880F911D9695879597F9089580
:1029E000E1E0660F771F881FBB1F6217730784071C
:1029F000BA0720F0621B730B840BBA0BEE1F88F72B
:102A0000E095089597FB16F40E9446150C9409155D
:102A1000E894F92F96EBFF2381F0121613061406A3
:102A2000440B9395F6958795779567955795404014
:102A3000FF23B9F71BC099270895882351F49850B4
:102A4000D2F7872B762F652F542F432F322F20E07C
:102A5000B1F3121613061406440B88233AF09A9524
:102A6000440F551F661F771F881FCAF755234AF466
:102A7000440F551F11F460FF04C06F5F7F4F8F4FED
:102A80009F4F880F9695879597F908959095809513
:102A90007095609550954095309521953F4F4F4FDB
:102AA0005F4F6F4F7F4F8F4F9F4F0895DB018F9385
:102AB0009F930E944514BF91AF91A29F800D911DDD
:102AC000A39F900DB29F900D11240895AA1BBB1BCC
:102AD00051E107C0AA1FBB1FA617B70710F0A61B1E
:102AE000B70B881F991F5A95A9F780959095BC013F
:102AF000CD010895A1E21A2EAA1BBB1BFD010DC03A
:102B0000AA1FBB1FEE1FFF1FA217B307E407F5079D
:102B100020F0A21BB30BE40BF50B661F771F881F79
:102B2000991F1A9469F760957095809590959B010F
:102B3000AC01BD01CF010895052E97FB1EF4009452
:102B40000E94B31557FD07D00E947A1507FC03D0E9
:102B50004EF40C94B31550954095309521953F4F08
:102B60004F4F5F4F089590958095709561957F4F79
:102B70008F4F9F4F0895B7FF0C9445140E94451442
:102B8000821B930B0895DF93CF931F930F939A9D0E
:102B9000F02D219FF00D8B9DF00D8A9DE02DF10D04
:102BA000039FF00D029FE00DF11D4E9DE00DF11D04
:102BB0005E9DF00D4F9DF00D7F936F93BF92AF928E
:102BC0005F934F93D5010E9481148B01AC01D70113
:102BD0000E948114EB01E80FF91FD6010E94121622
:102BE0002F913F91D6010E948114C60FD71FE81F75
:102BF000F91FAF91BF910E9412162F913F910E9431
:102C00008114C60FD71FE81FF91FD6010E94811437
:102C1000E60FF71F9801BE01CF010F911F91CF91D1
:102C2000DF9108950E948114460F571FC81FD91FB6
:102C300008F431960895689401C0E894F92FF12BB7
:102C400012F00C944F16A0E0B0E0E9E2F6E10C942B
:102C50005614092E059422F40E94AB16112392F407
:102C6000F0E80F26FFEFE094F09400951095B094F3
:102C7000C094D094A194BF0ACF0ADF0AEF0AFF0ADA
:102C80000F0B1F0B0E945A1607FC0E94AB16CDB704
:102C9000DEB7ECE00C946F14689401C0E8948F9256
:102CA0009F92CF93DF930E945A16DF91CF919F900E
:102CB0008F90089588249924F401E401B0E49F934F
:102CC000AA279A158B049C04ED05FE05CF05D007B5
:102CD000A10798F4AD2FDC2FCF2FFE2FE92D982CD4
:102CE000892E982F872F762F652F542F432F322F21
:102CF0002227B85031F7BF9127C01B2EBF91BB27A9
:102D0000220F331F441F551F661F771F881F991FEF
:102D1000881C991CEE1FFF1FCC1FDD1FAA1FBB1FA5
:102D20008A149B04EC05FD05CE05DF05A007B1075D
:102D300048F08A189B08EC09FD09CE09DF09A00BB1
:102D4000B10B21601A94E1F62EF49401AF01BE019B
:102D5000CD01000C08956095709580959095309503
:102D60004095509521953F4F4F4F5F4F6F4F7F4F8D
:102D70008F4F9F4F0895002E083090F0982F872F87
:102D8000762F652F542F432F322F22270850F4CF50
:102D9000220F331F441F551F661F771F881F991F5F
:102DA0000A95B2F7002D089597FD1094002E083073
:102DB00098F00850232F342F452F562F672F782F48
:102DC000892F912DF4CF15949795879577956795D1
:102DD00057954795379527950A95AAF71124002D01
:102DE00008952A0D3B1D4C1D5D1D6E1D7F1D801F0E
:102DF000911F08952A193B094C095D096E097F0945
:102E0000800B910B08950024A7FD00942A1730052C
:102E10004005500560057005800590050895EE0F8A
:0E2E2000FF1F0590F491E02D0994F894FFCF68
:102E2E00000000030001020000010100000000008C
:102E3E00000000000000000000000504000506026E
:102E4E000401030001000102030201000203040554
:102E5E00020305040202000502010500040101043B
:102E6E0004040303030305050303000001012010FE
:102E7E0001204004100208010201020408040201AC
:102E8E000408102004082010000000004D017B00F3
:102E9E00D900B700CB00A3011D08F002EF00DC0142
:102EAE00A80000000000D204AD04A604930484041C
:102EBE0083040D06C805BB0554051405F504ED0481
:102ECE002B0523055C0457040D0A00436F756C64D3
:102EDE00206E6F742066696E6420612076616C6965
:102EEE006420424D453238302073656E736F722CFC
:0F2EFE0020636865636B20776972696E672100D6
:042F0D000024F400A8
:00000001FF
